{
  "contractName": "MoleculeNFTFactory",
  "abi": [
    {
      "inputs": [],
      "stateMutability": "nonpayable",
      "type": "constructor"
    },
    {
      "inputs": [
        {
          "internalType": "string",
          "name": "",
          "type": "string"
        }
      ],
      "name": "availableCollections",
      "outputs": [
        {
          "internalType": "address",
          "name": "",
          "type": "address"
        }
      ],
      "stateMutability": "view",
      "type": "function",
      "constant": true
    },
    {
      "inputs": [],
      "name": "collectionsCount",
      "outputs": [
        {
          "internalType": "uint256",
          "name": "",
          "type": "uint256"
        }
      ],
      "stateMutability": "view",
      "type": "function",
      "constant": true
    },
    {
      "inputs": [
        {
          "internalType": "uint256",
          "name": "",
          "type": "uint256"
        }
      ],
      "name": "collectionsNames",
      "outputs": [
        {
          "internalType": "string",
          "name": "",
          "type": "string"
        }
      ],
      "stateMutability": "view",
      "type": "function",
      "constant": true
    },
    {
      "inputs": [
        {
          "internalType": "string",
          "name": "collectionName",
          "type": "string"
        },
        {
          "internalType": "string",
          "name": "collectionSymbol",
          "type": "string"
        }
      ],
      "name": "createNewCollection",
      "outputs": [],
      "stateMutability": "payable",
      "type": "function",
      "payable": true
    },
    {
      "inputs": [
        {
          "internalType": "string",
          "name": "collectionName",
          "type": "string"
        }
      ],
      "name": "getCollectionAddress",
      "outputs": [
        {
          "internalType": "address",
          "name": "",
          "type": "address"
        }
      ],
      "stateMutability": "view",
      "type": "function",
      "constant": true
    }
  ],
  "bytecode": "0x608060405234801561001057600080fd5b506000600281905550615089806100286000396000f3fe608060405260043610620000505760003560e01c806324cc066214620000555780635329ff02146200008557806384ae893e14620000c9578063a11ad040146200010d578063f1b5a4271462000151575b600080fd5b3480156200006257600080fd5b506200006d62000171565b6040516200007c919062000522565b60405180910390f35b3480156200009257600080fd5b50620000b16004803603810190620000ab9190620006b5565b62000177565b604051620000c091906200074b565b60405180910390f35b348015620000d657600080fd5b50620000f56004803603810190620000ef919062000799565b620001c0565b60405162000104919062000854565b60405180910390f35b3480156200011a57600080fd5b50620001396004803603810190620001339190620006b5565b62000268565b6040516200014891906200074b565b60405180910390f35b6200016f600480360381019062000169919062000878565b62000363565b005b60025481565b6000818051602081018201805184825260208301602085012081835280955050505050506000915054906101000a900473ffffffffffffffffffffffffffffffffffffffff1681565b60016020528060005260406000206000915090508054620001e1906200092c565b80601f01602080910402602001604051908101604052809291908181526020018280546200020f906200092c565b8015620002605780601f10620002345761010080835404028352916020019162000260565b820191906000526020600020905b8154815290600101906020018083116200024257829003601f168201915b505050505081565b60008073ffffffffffffffffffffffffffffffffffffffff16600083604051620002939190620009a3565b908152602001604051809103902060009054906101000a900473ffffffffffffffffffffffffffffffffffffffff1673ffffffffffffffffffffffffffffffffffffffff16036200031b576040517f08c379a0000000000000000000000000000000000000000000000000000000008152600401620003129062000a0c565b60405180910390fd5b6000826040516200032d9190620009a3565b908152602001604051809103902060009054906101000a900473ffffffffffffffffffffffffffffffffffffffff169050919050565b600073ffffffffffffffffffffffffffffffffffffffff166000836040516200038d9190620009a3565b908152602001604051809103902060009054906101000a900473ffffffffffffffffffffffffffffffffffffffff1673ffffffffffffffffffffffffffffffffffffffff161462000415576040517f08c379a00000000000000000000000000000000000000000000000000000000081526004016200040c9062000a7e565b60405180910390fd5b60008282336040516200042890620004f9565b620004369392919062000aa0565b604051809103906000f08015801562000453573d6000803e3d6000fd5b50905080600084604051620004699190620009a3565b908152602001604051809103902060006101000a81548173ffffffffffffffffffffffffffffffffffffffff021916908373ffffffffffffffffffffffffffffffffffffffff160217905550826001600060025481526020019081526020016000209081620004d9919062000cbd565b5060026000815480929190620004ef9062000dd3565b9190505550505050565b6142338062000e2183390190565b6000819050919050565b6200051c8162000507565b82525050565b600060208201905062000539600083018462000511565b92915050565b6000604051905090565b600080fd5b600080fd5b600080fd5b600080fd5b6000601f19601f8301169050919050565b7f4e487b7100000000000000000000000000000000000000000000000000000000600052604160045260246000fd5b620005a8826200055d565b810181811067ffffffffffffffff82111715620005ca57620005c96200056e565b5b80604052505050565b6000620005df6200053f565b9050620005ed82826200059d565b919050565b600067ffffffffffffffff82111562000610576200060f6200056e565b5b6200061b826200055d565b9050602081019050919050565b82818337600083830152505050565b60006200064e6200064884620005f2565b620005d3565b9050828152602081018484840111156200066d576200066c62000558565b5b6200067a84828562000628565b509392505050565b600082601f8301126200069a576200069962000553565b5b8135620006ac84826020860162000637565b91505092915050565b600060208284031215620006ce57620006cd62000549565b5b600082013567ffffffffffffffff811115620006ef57620006ee6200054e565b5b620006fd8482850162000682565b91505092915050565b600073ffffffffffffffffffffffffffffffffffffffff82169050919050565b6000620007338262000706565b9050919050565b620007458162000726565b82525050565b60006020820190506200076260008301846200073a565b92915050565b620007738162000507565b81146200077f57600080fd5b50565b600081359050620007938162000768565b92915050565b600060208284031215620007b257620007b162000549565b5b6000620007c28482850162000782565b91505092915050565b600081519050919050565b600082825260208201905092915050565b60005b8381101562000807578082015181840152602081019050620007ea565b60008484015250505050565b60006200082082620007cb565b6200082c8185620007d6565b93506200083e818560208601620007e7565b62000849816200055d565b840191505092915050565b6000602082019050818103600083015262000870818462000813565b905092915050565b6000806040838503121562000892576200089162000549565b5b600083013567ffffffffffffffff811115620008b357620008b26200054e565b5b620008c18582860162000682565b925050602083013567ffffffffffffffff811115620008e557620008e46200054e565b5b620008f38582860162000682565b9150509250929050565b7f4e487b7100000000000000000000000000000000000000000000000000000000600052602260045260246000fd5b600060028204905060018216806200094557607f821691505b6020821081036200095b576200095a620008fd565b5b50919050565b600081905092915050565b60006200097982620007cb565b62000985818562000961565b935062000997818560208601620007e7565b80840191505092915050565b6000620009b182846200096c565b915081905092915050565b7f5468697320436f6c6c656374696f6e20446f6573204e6f742045786973740000600082015250565b6000620009f4601e83620007d6565b915062000a0182620009bc565b602082019050919050565b6000602082019050818103600083015262000a2781620009e5565b9050919050565b7f5468697320436f6c6c656374696f6e20416c7265616479204578697374730000600082015250565b600062000a66601e83620007d6565b915062000a738262000a2e565b602082019050919050565b6000602082019050818103600083015262000a998162000a57565b9050919050565b6000606082019050818103600083015262000abc818662000813565b9050818103602083015262000ad2818562000813565b905062000ae360408301846200073a565b949350505050565b60008190508160005260206000209050919050565b60006020601f8301049050919050565b600082821b905092915050565b60006008830262000b4f7fffffffffffffffffffffffffffffffffffffffffffffffffffffffffffffffff8262000b10565b62000b5b868362000b10565b95508019841693508086168417925050509392505050565b6000819050919050565b600062000b9e62000b9862000b928462000507565b62000b73565b62000507565b9050919050565b6000819050919050565b62000bba8362000b7d565b62000bd262000bc98262000ba5565b84845462000b1d565b825550505050565b600090565b62000be962000bda565b62000bf681848462000baf565b505050565b5b8181101562000c1e5762000c1260008262000bdf565b60018101905062000bfc565b5050565b601f82111562000c6d5762000c378162000aeb565b62000c428462000b00565b8101602085101562000c52578190505b62000c6a62000c618562000b00565b83018262000bfb565b50505b505050565b600082821c905092915050565b600062000c926000198460080262000c72565b1980831691505092915050565b600062000cad838362000c7f565b9150826002028217905092915050565b62000cc882620007cb565b67ffffffffffffffff81111562000ce45762000ce36200056e565b5b62000cf082546200092c565b62000cfd82828562000c22565b600060209050601f83116001811462000d35576000841562000d20578287015190505b62000d2c858262000c9f565b86555062000d9c565b601f19841662000d458662000aeb565b60005b8281101562000d6f5784890151825560018201915060208501945060208101905062000d48565b8683101562000d8f578489015162000d8b601f89168262000c7f565b8355505b6001600288020188555050505b505050505050565b7f4e487b7100000000000000000000000000000000000000000000000000000000600052601160045260246000fd5b600062000de08262000507565b91507fffffffffffffffffffffffffffffffffffffffffffffffffffffffffffffffff820362000e155762000e1462000da4565b5b60018201905091905056fe60806040523480156200001157600080fd5b5060405162004233380380620042338339818101604052810190620000379190620004b0565b828281600090816200004a919062000795565b5080600190816200005c919062000795565b5050506200007f620000736200009960201b60201c565b620000a160201b60201c565b62000090816200016760201b60201c565b50505062000997565b600033905090565b6000600760009054906101000a900473ffffffffffffffffffffffffffffffffffffffff16905081600760006101000a81548173ffffffffffffffffffffffffffffffffffffffff021916908373ffffffffffffffffffffffffffffffffffffffff1602179055508173ffffffffffffffffffffffffffffffffffffffff168173ffffffffffffffffffffffffffffffffffffffff167f8be0079c531659141344cd1fd0a4f28419497f9722a3daafe3b4186f6b6457e060405160405180910390a35050565b62000177620001fd60201b60201c565b600073ffffffffffffffffffffffffffffffffffffffff168173ffffffffffffffffffffffffffffffffffffffff1603620001e9576040517f08c379a0000000000000000000000000000000000000000000000000000000008152600401620001e09062000903565b60405180910390fd5b620001fa81620000a160201b60201c565b50565b6200020d6200009960201b60201c565b73ffffffffffffffffffffffffffffffffffffffff16620002336200028e60201b60201c565b73ffffffffffffffffffffffffffffffffffffffff16146200028c576040517f08c379a0000000000000000000000000000000000000000000000000000000008152600401620002839062000975565b60405180910390fd5b565b6000600760009054906101000a900473ffffffffffffffffffffffffffffffffffffffff16905090565b6000604051905090565b600080fd5b600080fd5b600080fd5b600080fd5b6000601f19601f8301169050919050565b7f4e487b7100000000000000000000000000000000000000000000000000000000600052604160045260246000fd5b6200032182620002d6565b810181811067ffffffffffffffff82111715620003435762000342620002e7565b5b80604052505050565b600062000358620002b8565b905062000366828262000316565b919050565b600067ffffffffffffffff821115620003895762000388620002e7565b5b6200039482620002d6565b9050602081019050919050565b60005b83811015620003c1578082015181840152602081019050620003a4565b60008484015250505050565b6000620003e4620003de846200036b565b6200034c565b905082815260208101848484011115620004035762000402620002d1565b5b62000410848285620003a1565b509392505050565b600082601f83011262000430576200042f620002cc565b5b815162000442848260208601620003cd565b91505092915050565b600073ffffffffffffffffffffffffffffffffffffffff82169050919050565b600062000478826200044b565b9050919050565b6200048a816200046b565b81146200049657600080fd5b50565b600081519050620004aa816200047f565b92915050565b600080600060608486031215620004cc57620004cb620002c2565b5b600084015167ffffffffffffffff811115620004ed57620004ec620002c7565b5b620004fb8682870162000418565b935050602084015167ffffffffffffffff8111156200051f576200051e620002c7565b5b6200052d8682870162000418565b9250506040620005408682870162000499565b9150509250925092565b600081519050919050565b7f4e487b7100000000000000000000000000000000000000000000000000000000600052602260045260246000fd5b600060028204905060018216806200059d57607f821691505b602082108103620005b357620005b262000555565b5b50919050565b60008190508160005260206000209050919050565b60006020601f8301049050919050565b600082821b905092915050565b6000600883026200061d7fffffffffffffffffffffffffffffffffffffffffffffffffffffffffffffffff82620005de565b620006298683620005de565b95508019841693508086168417925050509392505050565b6000819050919050565b6000819050919050565b600062000676620006706200066a8462000641565b6200064b565b62000641565b9050919050565b6000819050919050565b620006928362000655565b620006aa620006a1826200067d565b848454620005eb565b825550505050565b600090565b620006c1620006b2565b620006ce81848462000687565b505050565b5b81811015620006f657620006ea600082620006b7565b600181019050620006d4565b5050565b601f82111562000745576200070f81620005b9565b6200071a84620005ce565b810160208510156200072a578190505b620007426200073985620005ce565b830182620006d3565b50505b505050565b600082821c905092915050565b60006200076a600019846008026200074a565b1980831691505092915050565b600062000785838362000757565b9150826002028217905092915050565b620007a0826200054a565b67ffffffffffffffff811115620007bc57620007bb620002e7565b5b620007c8825462000584565b620007d5828285620006fa565b600060209050601f8311600181146200080d5760008415620007f8578287015190505b62000804858262000777565b86555062000874565b601f1984166200081d86620005b9565b60005b82811015620008475784890151825560018201915060208501945060208101905062000820565b8683101562000867578489015162000863601f89168262000757565b8355505b6001600288020188555050505b505050505050565b600082825260208201905092915050565b7f4f776e61626c653a206e6577206f776e657220697320746865207a65726f206160008201527f6464726573730000000000000000000000000000000000000000000000000000602082015250565b6000620008eb6026836200087c565b9150620008f8826200088d565b604082019050919050565b600060208201905081810360008301526200091e81620008dc565b9050919050565b7f4f776e61626c653a2063616c6c6572206973206e6f7420746865206f776e6572600082015250565b60006200095d6020836200087c565b91506200096a8262000925565b602082019050919050565b6000602082019050818103600083015262000990816200094e565b9050919050565b61388c80620009a76000396000f3fe60806040526004361061014b5760003560e01c80638da5cb5b116100b6578063ba060bed1161006f578063ba060bed14610467578063c87b56dd146104a4578063e0993a7e146104e1578063e985e9c51461050c578063f2fde38b14610549578063f470641a146105725761014b565b80638da5cb5b1461036657806395d89b4114610391578063983b2d56146103bc578063a22cb465146103d8578063a8b5e6ea14610401578063b88d4fde1461043e5761014b565b806342842e0e1161010857806342842e0e14610263578063543a6f811461028c5780635ba2dc39146102aa5780636352211e146102d557806370a0823114610312578063715018a61461034f5761014b565b806301ffc9a71461015057806306fdde031461018d578063081812fc146101b8578063095ea7b3146101f5578063162094c41461021e57806323b872dd1461023a575b600080fd5b34801561015c57600080fd5b50610177600480360381019061017291906123c1565b61058e565b6040516101849190612409565b60405180910390f35b34801561019957600080fd5b506101a2610670565b6040516101af91906124b4565b60405180910390f35b3480156101c457600080fd5b506101df60048036038101906101da919061250c565b610702565b6040516101ec919061257a565b60405180910390f35b34801561020157600080fd5b5061021c600480360381019061021791906125c1565b610748565b005b61023860048036038101906102339190612736565b61085f565b005b34801561024657600080fd5b50610261600480360381019061025c9190612792565b6108e3565b005b34801561026f57600080fd5b5061028a60048036038101906102859190612792565b610943565b005b610294610963565b6040516102a191906127f4565b60405180910390f35b3480156102b657600080fd5b506102bf610b15565b6040516102cc91906127f4565b60405180910390f35b3480156102e157600080fd5b506102fc60048036038101906102f7919061250c565b610b1b565b604051610309919061257a565b60405180910390f35b34801561031e57600080fd5b506103396004803603810190610334919061280f565b610ba1565b60405161034691906127f4565b60405180910390f35b34801561035b57600080fd5b50610364610c58565b005b34801561037257600080fd5b5061037b610c6c565b604051610388919061257a565b60405180910390f35b34801561039d57600080fd5b506103a6610c96565b6040516103b391906124b4565b60405180910390f35b6103d660048036038101906103d1919061280f565b610d28565b005b3480156103e457600080fd5b506103ff60048036038101906103fa9190612868565b610e73565b005b34801561040d57600080fd5b506104286004803603810190610423919061280f565b610e89565b6040516104359190612409565b60405180910390f35b34801561044a57600080fd5b5061046560048036038101906104609190612949565b610ea9565b005b34801561047357600080fd5b5061048e6004803603810190610489919061280f565b610f0b565b60405161049b91906127f4565b60405180910390f35b3480156104b057600080fd5b506104cb60048036038101906104c6919061250c565b610f29565b6040516104d891906124b4565b60405180910390f35b3480156104ed57600080fd5b506104f661103b565b60405161050391906127f4565b60405180910390f35b34801561051857600080fd5b50610533600480360381019061052e91906129cc565b611041565b6040516105409190612409565b60405180910390f35b34801561055557600080fd5b50610570600480360381019061056b919061280f565b6110d5565b005b61058c6004803603810190610587919061280f565b611158565b005b60007f80ac58cd000000000000000000000000000000000000000000000000000000007bffffffffffffffffffffffffffffffffffffffffffffffffffffffff1916827bffffffffffffffffffffffffffffffffffffffffffffffffffffffff1916148061065957507f5b5e139f000000000000000000000000000000000000000000000000000000007bffffffffffffffffffffffffffffffffffffffffffffffffffffffff1916827bffffffffffffffffffffffffffffffffffffffffffffffffffffffff1916145b806106695750610668826112a3565b5b9050919050565b60606000805461067f90612a3b565b80601f01602080910402602001604051908101604052809291908181526020018280546106ab90612a3b565b80156106f85780601f106106cd576101008083540402835291602001916106f8565b820191906000526020600020905b8154815290600101906020018083116106db57829003601f168201915b5050505050905090565b600061070d8261130d565b6004600083815260200190815260200160002060009054906101000a900473ffffffffffffffffffffffffffffffffffffffff169050919050565b600061075382610b1b565b90508073ffffffffffffffffffffffffffffffffffffffff168373ffffffffffffffffffffffffffffffffffffffff16036107c3576040517f08c379a00000000000000000000000000000000000000000000000000000000081526004016107ba90612ade565b60405180910390fd5b8073ffffffffffffffffffffffffffffffffffffffff166107e2611358565b73ffffffffffffffffffffffffffffffffffffffff16148061081157506108108161080b611358565b611041565b5b610850576040517f08c379a000000000000000000000000000000000000000000000000000000000815260040161084790612b70565b60405180910390fd5b61085a8383611360565b505050565b3373ffffffffffffffffffffffffffffffffffffffff1661087f83610b1b565b73ffffffffffffffffffffffffffffffffffffffff16146108d5576040517f08c379a00000000000000000000000000000000000000000000000000000000081526004016108cc90612c02565b60405180910390fd5b6108df8282611419565b5050565b6108f46108ee611358565b82611486565b610933576040517f08c379a000000000000000000000000000000000000000000000000000000000815260040161092a90612c94565b60405180910390fd5b61093e83838361151b565b505050565b61095e83838360405180602001604052806000815250610ea9565b505050565b600060011515600960003373ffffffffffffffffffffffffffffffffffffffff1673ffffffffffffffffffffffffffffffffffffffff16815260200190815260200160002060009054906101000a900460ff161515146109f8576040517f08c379a00000000000000000000000000000000000000000000000000000000081526004016109ef90612d26565b60405180910390fd5b6000610a046008611814565b9050610a103382611822565b80600b60003373ffffffffffffffffffffffffffffffffffffffff1673ffffffffffffffffffffffffffffffffffffffff1681526020019081526020016000206001016000600b60003373ffffffffffffffffffffffffffffffffffffffff1673ffffffffffffffffffffffffffffffffffffffff168152602001908152602001600020600001548152602001908152602001600020819055506001600b60003373ffffffffffffffffffffffffffffffffffffffff1673ffffffffffffffffffffffffffffffffffffffff1681526020019081526020016000206000016000828254610afd9190612d75565b92505081905550610b0e6008611a3f565b8091505090565b600a5481565b600080610b2783611a55565b9050600073ffffffffffffffffffffffffffffffffffffffff168173ffffffffffffffffffffffffffffffffffffffff1603610b98576040517f08c379a0000000000000000000000000000000000000000000000000000000008152600401610b8f90612df5565b60405180910390fd5b80915050919050565b60008073ffffffffffffffffffffffffffffffffffffffff168273ffffffffffffffffffffffffffffffffffffffff1603610c11576040517f08c379a0000000000000000000000000000000000000000000000000000000008152600401610c0890612e87565b60405180910390fd5b600360008373ffffffffffffffffffffffffffffffffffffffff1673ffffffffffffffffffffffffffffffffffffffff168152602001908152602001600020549050919050565b610c60611a92565b610c6a6000611b10565b565b6000600760009054906101000a900473ffffffffffffffffffffffffffffffffffffffff16905090565b606060018054610ca590612a3b565b80601f0160208091040260200160405190810160405280929190818152602001828054610cd190612a3b565b8015610d1e5780601f10610cf357610100808354040283529160200191610d1e565b820191906000526020600020905b815481529060010190602001808311610d0157829003601f168201915b5050505050905090565b610d30611a92565b60001515600960008373ffffffffffffffffffffffffffffffffffffffff1673ffffffffffffffffffffffffffffffffffffffff16815260200190815260200160002060009054906101000a900460ff16151514610dc3576040517f08c379a0000000000000000000000000000000000000000000000000000000008152600401610dba90612ef3565b60405180910390fd5b6001600960008373ffffffffffffffffffffffffffffffffffffffff1673ffffffffffffffffffffffffffffffffffffffff16815260200190815260200160002060006101000a81548160ff0219169083151502179055506001600c6000828254610e2e9190612d75565b925050819055507f58e089283dccb57cc6340cebc10fe628ee45872476b344983a92c17ca11dff5681600c54604051610e68929190612f13565b60405180910390a150565b610e85610e7e611358565b8383611bd6565b5050565b60096020528060005260406000206000915054906101000a900460ff1681565b610eba610eb4611358565b83611486565b610ef9576040517f08c379a0000000000000000000000000000000000000000000000000000000008152600401610ef090612c94565b60405180910390fd5b610f0584848484611d42565b50505050565b600b6020528060005260406000206000915090508060000154905081565b6060610f348261130d565b6000600660008481526020019081526020016000208054610f5490612a3b565b80601f0160208091040260200160405190810160405280929190818152602001828054610f8090612a3b565b8015610fcd5780601f10610fa257610100808354040283529160200191610fcd565b820191906000526020600020905b815481529060010190602001808311610fb057829003601f168201915b505050505090506000610fde611d9e565b90506000815103610ff3578192505050611036565b600082511115611028578082604051602001611010929190612f78565b60405160208183030381529060405292505050611036565b61103184611db5565b925050505b919050565b600c5481565b6000600560008473ffffffffffffffffffffffffffffffffffffffff1673ffffffffffffffffffffffffffffffffffffffff16815260200190815260200160002060008373ffffffffffffffffffffffffffffffffffffffff1673ffffffffffffffffffffffffffffffffffffffff16815260200190815260200160002060009054906101000a900460ff16905092915050565b6110dd611a92565b600073ffffffffffffffffffffffffffffffffffffffff168173ffffffffffffffffffffffffffffffffffffffff160361114c576040517f08c379a00000000000000000000000000000000000000000000000000000000081526004016111439061300e565b60405180910390fd5b61115581611b10565b50565b611160611a92565b60011515600960008373ffffffffffffffffffffffffffffffffffffffff1673ffffffffffffffffffffffffffffffffffffffff16815260200190815260200160002060009054906101000a900460ff161515146111f3576040517f08c379a00000000000000000000000000000000000000000000000000000000081526004016111ea9061307a565b60405180910390fd5b6000600960008373ffffffffffffffffffffffffffffffffffffffff1673ffffffffffffffffffffffffffffffffffffffff16815260200190815260200160002060006101000a81548160ff0219169083151502179055506001600c600082825461125e919061309a565b925050819055507fb83792b7689b5129a5043d38614e3438d76ee1090a09077740dc59c91930825081600c54604051611298929190612f13565b60405180910390a150565b60007f01ffc9a7000000000000000000000000000000000000000000000000000000007bffffffffffffffffffffffffffffffffffffffffffffffffffffffff1916827bffffffffffffffffffffffffffffffffffffffffffffffffffffffff1916149050919050565b61131681611e1d565b611355576040517f08c379a000000000000000000000000000000000000000000000000000000000815260040161134c90612df5565b60405180910390fd5b50565b600033905090565b816004600083815260200190815260200160002060006101000a81548173ffffffffffffffffffffffffffffffffffffffff021916908373ffffffffffffffffffffffffffffffffffffffff160217905550808273ffffffffffffffffffffffffffffffffffffffff166113d383610b1b565b73ffffffffffffffffffffffffffffffffffffffff167f8c5be1e5ebec7d5bd14f71427d1e84f3dd0314c0f7b2291e5b200ac8c7c3b92560405160405180910390a45050565b61142282611e1d565b611461576040517f08c379a000000000000000000000000000000000000000000000000000000000815260040161145890613140565b60405180910390fd5b80600660008481526020019081526020016000209081611481919061330c565b505050565b60008061149283610b1b565b90508073ffffffffffffffffffffffffffffffffffffffff168473ffffffffffffffffffffffffffffffffffffffff1614806114d457506114d38185611041565b5b8061151257508373ffffffffffffffffffffffffffffffffffffffff166114fa84610702565b73ffffffffffffffffffffffffffffffffffffffff16145b91505092915050565b8273ffffffffffffffffffffffffffffffffffffffff1661153b82610b1b565b73ffffffffffffffffffffffffffffffffffffffff1614611591576040517f08c379a000000000000000000000000000000000000000000000000000000000815260040161158890613450565b60405180910390fd5b600073ffffffffffffffffffffffffffffffffffffffff168273ffffffffffffffffffffffffffffffffffffffff1603611600576040517f08c379a00000000000000000000000000000000000000000000000000000000081526004016115f7906134e2565b60405180910390fd5b61160d8383836001611e5e565b8273ffffffffffffffffffffffffffffffffffffffff1661162d82610b1b565b73ffffffffffffffffffffffffffffffffffffffff1614611683576040517f08c379a000000000000000000000000000000000000000000000000000000000815260040161167a90613450565b60405180910390fd5b6004600082815260200190815260200160002060006101000a81549073ffffffffffffffffffffffffffffffffffffffff02191690556001600360008573ffffffffffffffffffffffffffffffffffffffff1673ffffffffffffffffffffffffffffffffffffffff168152602001908152602001600020600082825403925050819055506001600360008473ffffffffffffffffffffffffffffffffffffffff1673ffffffffffffffffffffffffffffffffffffffff16815260200190815260200160002060008282540192505081905550816002600083815260200190815260200160002060006101000a81548173ffffffffffffffffffffffffffffffffffffffff021916908373ffffffffffffffffffffffffffffffffffffffff160217905550808273ffffffffffffffffffffffffffffffffffffffff168473ffffffffffffffffffffffffffffffffffffffff167fddf252ad1be2c89b69c2b068fc378daa952ba7f163c4a11628f55a4df523b3ef60405160405180910390a461180f8383836001611f84565b505050565b600081600001549050919050565b600073ffffffffffffffffffffffffffffffffffffffff168273ffffffffffffffffffffffffffffffffffffffff1603611891576040517f08c379a00000000000000000000000000000000000000000000000000000000081526004016118889061354e565b60405180910390fd5b61189a81611e1d565b156118da576040517f08c379a00000000000000000000000000000000000000000000000000000000081526004016118d1906135ba565b60405180910390fd5b6118e8600083836001611e5e565b6118f181611e1d565b15611931576040517f08c379a0000000000000000000000000000000000000000000000000000000008152600401611928906135ba565b60405180910390fd5b6001600360008473ffffffffffffffffffffffffffffffffffffffff1673ffffffffffffffffffffffffffffffffffffffff16815260200190815260200160002060008282540192505081905550816002600083815260200190815260200160002060006101000a81548173ffffffffffffffffffffffffffffffffffffffff021916908373ffffffffffffffffffffffffffffffffffffffff160217905550808273ffffffffffffffffffffffffffffffffffffffff16600073ffffffffffffffffffffffffffffffffffffffff167fddf252ad1be2c89b69c2b068fc378daa952ba7f163c4a11628f55a4df523b3ef60405160405180910390a4611a3b600083836001611f84565b5050565b6001816000016000828254019250508190555050565b60006002600083815260200190815260200160002060009054906101000a900473ffffffffffffffffffffffffffffffffffffffff169050919050565b611a9a611358565b73ffffffffffffffffffffffffffffffffffffffff16611ab8610c6c565b73ffffffffffffffffffffffffffffffffffffffff1614611b0e576040517f08c379a0000000000000000000000000000000000000000000000000000000008152600401611b0590613626565b60405180910390fd5b565b6000600760009054906101000a900473ffffffffffffffffffffffffffffffffffffffff16905081600760006101000a81548173ffffffffffffffffffffffffffffffffffffffff021916908373ffffffffffffffffffffffffffffffffffffffff1602179055508173ffffffffffffffffffffffffffffffffffffffff168173ffffffffffffffffffffffffffffffffffffffff167f8be0079c531659141344cd1fd0a4f28419497f9722a3daafe3b4186f6b6457e060405160405180910390a35050565b8173ffffffffffffffffffffffffffffffffffffffff168373ffffffffffffffffffffffffffffffffffffffff1603611c44576040517f08c379a0000000000000000000000000000000000000000000000000000000008152600401611c3b90613692565b60405180910390fd5b80600560008573ffffffffffffffffffffffffffffffffffffffff1673ffffffffffffffffffffffffffffffffffffffff16815260200190815260200160002060008473ffffffffffffffffffffffffffffffffffffffff1673ffffffffffffffffffffffffffffffffffffffff16815260200190815260200160002060006101000a81548160ff0219169083151502179055508173ffffffffffffffffffffffffffffffffffffffff168373ffffffffffffffffffffffffffffffffffffffff167f17307eab39ab6107e8899845ad3d59bd9653f200f220920489ca2b5937696c3183604051611d359190612409565b60405180910390a3505050565b611d4d84848461151b565b611d5984848484611f8a565b611d98576040517f08c379a0000000000000000000000000000000000000000000000000000000008152600401611d8f90613724565b60405180910390fd5b50505050565b606060405180602001604052806000815250905090565b6060611dc08261130d565b6000611dca611d9e565b90506000815111611dea5760405180602001604052806000815250611e15565b80611df484612111565b604051602001611e05929190612f78565b6040516020818303038152906040525b915050919050565b60008073ffffffffffffffffffffffffffffffffffffffff16611e3f83611a55565b73ffffffffffffffffffffffffffffffffffffffff1614159050919050565b6001811115611f7e57600073ffffffffffffffffffffffffffffffffffffffff168473ffffffffffffffffffffffffffffffffffffffff1614611ef25780600360008673ffffffffffffffffffffffffffffffffffffffff1673ffffffffffffffffffffffffffffffffffffffff1681526020019081526020016000206000828254611eea919061309a565b925050819055505b600073ffffffffffffffffffffffffffffffffffffffff168373ffffffffffffffffffffffffffffffffffffffff1614611f7d5780600360008573ffffffffffffffffffffffffffffffffffffffff1673ffffffffffffffffffffffffffffffffffffffff1681526020019081526020016000206000828254611f759190612d75565b925050819055505b5b50505050565b50505050565b6000611fab8473ffffffffffffffffffffffffffffffffffffffff166121df565b15612104578373ffffffffffffffffffffffffffffffffffffffff1663150b7a02611fd4611358565b8786866040518563ffffffff1660e01b8152600401611ff69493929190613799565b6020604051808303816000875af192505050801561203257506040513d601f19601f8201168201806040525081019061202f91906137fa565b60015b6120b4573d8060008114612062576040519150601f19603f3d011682016040523d82523d6000602084013e612067565b606091505b5060008151036120ac576040517f08c379a00000000000000000000000000000000000000000000000000000000081526004016120a390613724565b60405180910390fd5b805181602001fd5b63150b7a0260e01b7bffffffffffffffffffffffffffffffffffffffffffffffffffffffff1916817bffffffffffffffffffffffffffffffffffffffffffffffffffffffff191614915050612109565b600190505b949350505050565b60606000600161212084612202565b01905060008167ffffffffffffffff81111561213f5761213e61260b565b5b6040519080825280601f01601f1916602001820160405280156121715781602001600182028036833780820191505090505b509050600082602001820190505b6001156121d4578080600190039150507f3031323334353637383961626364656600000000000000000000000000000000600a86061a8153600a85816121c8576121c7613827565b5b0494506000850361217f575b819350505050919050565b6000808273ffffffffffffffffffffffffffffffffffffffff163b119050919050565b600080600090507a184f03e93ff9f4daa797ed6e38ed64bf6a1f0100000000000000008310612260577a184f03e93ff9f4daa797ed6e38ed64bf6a1f010000000000000000838161225657612255613827565b5b0492506040810190505b6d04ee2d6d415b85acef8100000000831061229d576d04ee2d6d415b85acef8100000000838161229357612292613827565b5b0492506020810190505b662386f26fc1000083106122cc57662386f26fc1000083816122c2576122c1613827565b5b0492506010810190505b6305f5e10083106122f5576305f5e10083816122eb576122ea613827565b5b0492506008810190505b612710831061231a5761271083816123105761230f613827565b5b0492506004810190505b6064831061233d576064838161233357612332613827565b5b0492506002810190505b600a831061234c576001810190505b80915050919050565b6000604051905090565b600080fd5b600080fd5b60007fffffffff0000000000000000000000000000000000000000000000000000000082169050919050565b61239e81612369565b81146123a957600080fd5b50565b6000813590506123bb81612395565b92915050565b6000602082840312156123d7576123d661235f565b5b60006123e5848285016123ac565b91505092915050565b60008115159050919050565b612403816123ee565b82525050565b600060208201905061241e60008301846123fa565b92915050565b600081519050919050565b600082825260208201905092915050565b60005b8381101561245e578082015181840152602081019050612443565b60008484015250505050565b6000601f19601f8301169050919050565b600061248682612424565b612490818561242f565b93506124a0818560208601612440565b6124a98161246a565b840191505092915050565b600060208201905081810360008301526124ce818461247b565b905092915050565b6000819050919050565b6124e9816124d6565b81146124f457600080fd5b50565b600081359050612506816124e0565b92915050565b6000602082840312156125225761252161235f565b5b6000612530848285016124f7565b91505092915050565b600073ffffffffffffffffffffffffffffffffffffffff82169050919050565b600061256482612539565b9050919050565b61257481612559565b82525050565b600060208201905061258f600083018461256b565b92915050565b61259e81612559565b81146125a957600080fd5b50565b6000813590506125bb81612595565b92915050565b600080604083850312156125d8576125d761235f565b5b60006125e6858286016125ac565b92505060206125f7858286016124f7565b9150509250929050565b600080fd5b600080fd5b7f4e487b7100000000000000000000000000000000000000000000000000000000600052604160045260246000fd5b6126438261246a565b810181811067ffffffffffffffff821117156126625761266161260b565b5b80604052505050565b6000612675612355565b9050612681828261263a565b919050565b600067ffffffffffffffff8211156126a1576126a061260b565b5b6126aa8261246a565b9050602081019050919050565b82818337600083830152505050565b60006126d96126d484612686565b61266b565b9050828152602081018484840111156126f5576126f4612606565b5b6127008482856126b7565b509392505050565b600082601f83011261271d5761271c612601565b5b813561272d8482602086016126c6565b91505092915050565b6000806040838503121561274d5761274c61235f565b5b600061275b858286016124f7565b925050602083013567ffffffffffffffff81111561277c5761277b612364565b5b61278885828601612708565b9150509250929050565b6000806000606084860312156127ab576127aa61235f565b5b60006127b9868287016125ac565b93505060206127ca868287016125ac565b92505060406127db868287016124f7565b9150509250925092565b6127ee816124d6565b82525050565b600060208201905061280960008301846127e5565b92915050565b6000602082840312156128255761282461235f565b5b6000612833848285016125ac565b91505092915050565b612845816123ee565b811461285057600080fd5b50565b6000813590506128628161283c565b92915050565b6000806040838503121561287f5761287e61235f565b5b600061288d858286016125ac565b925050602061289e85828601612853565b9150509250929050565b600067ffffffffffffffff8211156128c3576128c261260b565b5b6128cc8261246a565b9050602081019050919050565b60006128ec6128e7846128a8565b61266b565b90508281526020810184848401111561290857612907612606565b5b6129138482856126b7565b509392505050565b600082601f8301126129305761292f612601565b5b81356129408482602086016128d9565b91505092915050565b600080600080608085870312156129635761296261235f565b5b6000612971878288016125ac565b9450506020612982878288016125ac565b9350506040612993878288016124f7565b925050606085013567ffffffffffffffff8111156129b4576129b3612364565b5b6129c08782880161291b565b91505092959194509250565b600080604083850312156129e3576129e261235f565b5b60006129f1858286016125ac565b9250506020612a02858286016125ac565b9150509250929050565b7f4e487b7100000000000000000000000000000000000000000000000000000000600052602260045260246000fd5b60006002820490506001821680612a5357607f821691505b602082108103612a6657612a65612a0c565b5b50919050565b7f4552433732313a20617070726f76616c20746f2063757272656e74206f776e6560008201527f7200000000000000000000000000000000000000000000000000000000000000602082015250565b6000612ac860218361242f565b9150612ad382612a6c565b604082019050919050565b60006020820190508181036000830152612af781612abb565b9050919050565b7f4552433732313a20617070726f76652063616c6c6572206973206e6f7420746f60008201527f6b656e206f776e6572206f7220617070726f76656420666f7220616c6c000000602082015250565b6000612b5a603d8361242f565b9150612b6582612afe565b604082019050919050565b60006020820190508181036000830152612b8981612b4d565b9050919050565b7f536f7272792062757420796f757920617265206e6f7420746865206f776e657260008201527f206f662074686973204e46540000000000000000000000000000000000000000602082015250565b6000612bec602c8361242f565b9150612bf782612b90565b604082019050919050565b60006020820190508181036000830152612c1b81612bdf565b9050919050565b7f4552433732313a2063616c6c6572206973206e6f7420746f6b656e206f776e6560008201527f72206f7220617070726f76656400000000000000000000000000000000000000602082015250565b6000612c7e602d8361242f565b9150612c8982612c22565b604082019050919050565b60006020820190508181036000830152612cad81612c71565b9050919050565b7f596f7520617265206e6f7420636f6e736964657265642061732061206d696e7460008201527f65722c20706c6561736520636f6e74616374207468652061646d696e00000000602082015250565b6000612d10603c8361242f565b9150612d1b82612cb4565b604082019050919050565b60006020820190508181036000830152612d3f81612d03565b9050919050565b7f4e487b7100000000000000000000000000000000000000000000000000000000600052601160045260246000fd5b6000612d80826124d6565b9150612d8b836124d6565b9250828201905080821115612da357612da2612d46565b5b92915050565b7f4552433732313a20696e76616c696420746f6b656e2049440000000000000000600082015250565b6000612ddf60188361242f565b9150612dea82612da9565b602082019050919050565b60006020820190508181036000830152612e0e81612dd2565b9050919050565b7f4552433732313a2061646472657373207a65726f206973206e6f74206120766160008201527f6c6964206f776e65720000000000000000000000000000000000000000000000602082015250565b6000612e7160298361242f565b9150612e7c82612e15565b604082019050919050565b60006020820190508181036000830152612ea081612e64565b9050919050565b7f54686973206d696e74657220616c726561647920657869737473000000000000600082015250565b6000612edd601a8361242f565b9150612ee882612ea7565b602082019050919050565b60006020820190508181036000830152612f0c81612ed0565b9050919050565b6000604082019050612f28600083018561256b565b612f3560208301846127e5565b9392505050565b600081905092915050565b6000612f5282612424565b612f5c8185612f3c565b9350612f6c818560208601612440565b80840191505092915050565b6000612f848285612f47565b9150612f908284612f47565b91508190509392505050565b7f4f776e61626c653a206e6577206f776e657220697320746865207a65726f206160008201527f6464726573730000000000000000000000000000000000000000000000000000602082015250565b6000612ff860268361242f565b915061300382612f9c565b604082019050919050565b6000602082019050818103600083015261302781612feb565b9050919050565b7f54686973206d696e74657220646f6573206e6f74206578697374000000000000600082015250565b6000613064601a8361242f565b915061306f8261302e565b602082019050919050565b6000602082019050818103600083015261309381613057565b9050919050565b60006130a5826124d6565b91506130b0836124d6565b92508282039050818111156130c8576130c7612d46565b5b92915050565b7f45524337323155524953746f726167653a2055524920736574206f66206e6f6e60008201527f6578697374656e7420746f6b656e000000000000000000000000000000000000602082015250565b600061312a602e8361242f565b9150613135826130ce565b604082019050919050565b600060208201905081810360008301526131598161311d565b9050919050565b60008190508160005260206000209050919050565b60006020601f8301049050919050565b600082821b905092915050565b6000600883026131c27fffffffffffffffffffffffffffffffffffffffffffffffffffffffffffffffff82613185565b6131cc8683613185565b95508019841693508086168417925050509392505050565b6000819050919050565b60006132096132046131ff846124d6565b6131e4565b6124d6565b9050919050565b6000819050919050565b613223836131ee565b61323761322f82613210565b848454613192565b825550505050565b600090565b61324c61323f565b61325781848461321a565b505050565b5b8181101561327b57613270600082613244565b60018101905061325d565b5050565b601f8211156132c05761329181613160565b61329a84613175565b810160208510156132a9578190505b6132bd6132b585613175565b83018261325c565b50505b505050565b600082821c905092915050565b60006132e3600019846008026132c5565b1980831691505092915050565b60006132fc83836132d2565b9150826002028217905092915050565b61331582612424565b67ffffffffffffffff81111561332e5761332d61260b565b5b6133388254612a3b565b61334382828561327f565b600060209050601f8311600181146133765760008415613364578287015190505b61336e85826132f0565b8655506133d6565b601f19841661338486613160565b60005b828110156133ac57848901518255600182019150602085019450602081019050613387565b868310156133c957848901516133c5601f8916826132d2565b8355505b6001600288020188555050505b505050505050565b7f4552433732313a207472616e736665722066726f6d20696e636f72726563742060008201527f6f776e6572000000000000000000000000000000000000000000000000000000602082015250565b600061343a60258361242f565b9150613445826133de565b604082019050919050565b600060208201905081810360008301526134698161342d565b9050919050565b7f4552433732313a207472616e7366657220746f20746865207a65726f2061646460008201527f7265737300000000000000000000000000000000000000000000000000000000602082015250565b60006134cc60248361242f565b91506134d782613470565b604082019050919050565b600060208201905081810360008301526134fb816134bf565b9050919050565b7f4552433732313a206d696e7420746f20746865207a65726f2061646472657373600082015250565b600061353860208361242f565b915061354382613502565b602082019050919050565b600060208201905081810360008301526135678161352b565b9050919050565b7f4552433732313a20746f6b656e20616c7265616479206d696e74656400000000600082015250565b60006135a4601c8361242f565b91506135af8261356e565b602082019050919050565b600060208201905081810360008301526135d381613597565b9050919050565b7f4f776e61626c653a2063616c6c6572206973206e6f7420746865206f776e6572600082015250565b600061361060208361242f565b915061361b826135da565b602082019050919050565b6000602082019050818103600083015261363f81613603565b9050919050565b7f4552433732313a20617070726f766520746f2063616c6c657200000000000000600082015250565b600061367c60198361242f565b915061368782613646565b602082019050919050565b600060208201905081810360008301526136ab8161366f565b9050919050565b7f4552433732313a207472616e7366657220746f206e6f6e20455243373231526560008201527f63656976657220696d706c656d656e7465720000000000000000000000000000602082015250565b600061370e60328361242f565b9150613719826136b2565b604082019050919050565b6000602082019050818103600083015261373d81613701565b9050919050565b600081519050919050565b600082825260208201905092915050565b600061376b82613744565b613775818561374f565b9350613785818560208601612440565b61378e8161246a565b840191505092915050565b60006080820190506137ae600083018761256b565b6137bb602083018661256b565b6137c860408301856127e5565b81810360608301526137da8184613760565b905095945050505050565b6000815190506137f481612395565b92915050565b6000602082840312156138105761380f61235f565b5b600061381e848285016137e5565b91505092915050565b7f4e487b7100000000000000000000000000000000000000000000000000000000600052601260045260246000fdfea26469706673582212207a1ae3e62cea6719d0b7ccaf242ab636eb250a641eae8e42b9640888bdd011ad64736f6c63430008110033a264697066735822122024581ad2feb383a049ecfe92ba1897694e2d0da665686055fd21b86d6610a8bd64736f6c63430008110033",
  "immutableReferences": {},
  "source": "// SPDX-License-Identifier: MIT\npragma solidity 0.8.17;\n\nimport './MoleculeNFT.sol';\n\ncontract MoleculeNFTFactory {\n    mapping(string=>address) public availableCollections;\n    mapping(uint256=>string) public collectionsNames;\n    uint256 public collectionsCount;\n    constructor() {\n        collectionsCount = 0;\n    }\n    function createNewCollection(string memory collectionName, string memory collectionSymbol) payable public {\n        require(availableCollections[collectionName] == address(0), 'This Collection Already Exists');\n        MoleculeNFT collection = new MoleculeNFT(collectionName, collectionSymbol, msg.sender);\n        availableCollections[collectionName] = address(collection);\n        collectionsNames[collectionsCount] = collectionName;\n        collectionsCount ++;\n    }\n\n    function getCollectionAddress(string memory collectionName) view public returns (address) {\n        require(availableCollections[collectionName] != address(0), 'This Collection Does Not Exist');\n        return availableCollections[collectionName];\n    }\n}\n",
  "sourcePath": "/Users/nourkaroui/Desktop/web3/molecule-test/contracts/MoleculeNFTFactory.sol",
  "compiler": {
    "name": "solc",
    "version": "0.8.17+commit.8df45f5f.Emscripten.clang"
  },
  "schemaVersion": "3.4.11",
  "updatedAt": "2023-02-10T11:11:04.062Z",
  "networkType": "ethereum",
  "devdoc": {
    "kind": "dev",
    "methods": {},
    "version": 1
  },
  "userdoc": {
    "kind": "user",
    "methods": {},
    "version": 1
  }
}